{
  "transactions": [
    {
      "hash": "0xcfe1ab74d5bc9fc22d038c1e34dd3d1926cd7a1e341886108b0317abdf4ca496",
      "transactionType": "CALL",
      "contractName": null,
      "contractAddress": "0xD5372902ccB2cC3939c24008E8B7D6Dd79c7Af79",
      "function": "send(uint256)",
      "arguments": [
        "12000000"
      ],
      "transaction": {
        "type": "0x02",
        "from": "0x51c2b2e1073432eac568187bab883ede1e31e9ea",
        "to": "0xd5372902ccb2cc3939c24008e8b7d6dd79c7af79",
        "gas": "0x28d88",
        "value": "0x0",
        "data": "0xa52c101e0000000000000000000000000000000000000000000000000000000000b71b00",
        "nonce": "0x5",
        "accessList": []
      },
      "additionalContracts": [],
      "isFixedGasLimit": false
    }
  ],
  "receipts": [
    {
      "transactionHash": "0xcfe1ab74d5bc9fc22d038c1e34dd3d1926cd7a1e341886108b0317abdf4ca496",
      "transactionIndex": "0x2",
      "blockHash": "0xf300af4e6c74f4fa1a18dba6e991f99925159c9a7ed5a8ba61a5e4a342ec01d2",
      "blockNumber": "0xc151d2f",
      "from": "0x51c2B2E1073432Eac568187bAB883ede1E31E9EA",
      "to": "0xD5372902ccB2cC3939c24008E8B7D6Dd79c7Af79",
      "cumulativeGasUsed": "0x2bc0b",
      "gasUsed": "0x18be2",
      "contractAddress": null,
      "logs": [
        {
          "address": "0xEB466342C4d449BC9f53A865D5Cb90586f405215",
          "topics": [
            "0x8c5be1e5ebec7d5bd14f71427d1e84f3dd0314c0f7b2291e5b200ac8c7c3b925",
            "0x000000000000000000000000d5372902ccb2cc3939c24008e8b7d6dd79c7af79",
            "0x000000000000000000000000e432150cce91c13a887f7d836923d5597add8e31"
          ],
          "data": "0x0000000000000000000000000000000000000000000000000000000000b71b00",
          "blockHash": "0xf300af4e6c74f4fa1a18dba6e991f99925159c9a7ed5a8ba61a5e4a342ec01d2",
          "blockNumber": "0xc151d2f",
          "transactionHash": "0xcfe1ab74d5bc9fc22d038c1e34dd3d1926cd7a1e341886108b0317abdf4ca496",
          "transactionIndex": "0x2",
          "logIndex": "0x1",
          "removed": false
        },
        {
          "address": "0xEB466342C4d449BC9f53A865D5Cb90586f405215",
          "topics": [
            "0x8c5be1e5ebec7d5bd14f71427d1e84f3dd0314c0f7b2291e5b200ac8c7c3b925",
            "0x000000000000000000000000d5372902ccb2cc3939c24008e8b7d6dd79c7af79",
            "0x000000000000000000000000e432150cce91c13a887f7d836923d5597add8e31"
          ],
          "data": "0x0000000000000000000000000000000000000000000000000000000000000000",
          "blockHash": "0xf300af4e6c74f4fa1a18dba6e991f99925159c9a7ed5a8ba61a5e4a342ec01d2",
          "blockNumber": "0xc151d2f",
          "transactionHash": "0xcfe1ab74d5bc9fc22d038c1e34dd3d1926cd7a1e341886108b0317abdf4ca496",
          "transactionIndex": "0x2",
          "logIndex": "0x2",
          "removed": false
        },
        {
          "address": "0xEB466342C4d449BC9f53A865D5Cb90586f405215",
          "topics": [
            "0xddf252ad1be2c89b69c2b068fc378daa952ba7f163c4a11628f55a4df523b3ef",
            "0x000000000000000000000000d5372902ccb2cc3939c24008e8b7d6dd79c7af79",
            "0x0000000000000000000000000000000000000000000000000000000000000000"
          ],
          "data": "0x0000000000000000000000000000000000000000000000000000000000b71b00",
          "blockHash": "0xf300af4e6c74f4fa1a18dba6e991f99925159c9a7ed5a8ba61a5e4a342ec01d2",
          "blockNumber": "0xc151d2f",
          "transactionHash": "0xcfe1ab74d5bc9fc22d038c1e34dd3d1926cd7a1e341886108b0317abdf4ca496",
          "transactionIndex": "0x2",
          "logIndex": "0x3",
          "removed": false
        },
        {
          "address": "0xe432150cce91c13a887f7D836923d5597adD8E31",
          "topics": [
            "0x651d93f66c4329630e8d0f62488eff599e3be484da587335e8dc0fcf46062726",
            "0x000000000000000000000000d5372902ccb2cc3939c24008e8b7d6dd79c7af79"
          ],
          "data": "0x000000000000000000000000000000000000000000000000000000000000008000000000000000000000000000000000000000000000000000000000000000c000000000000000000000000000000000000000000000000000000000000001200000000000000000000000000000000000000000000000000000000000b71b000000000000000000000000000000000000000000000000000000000000000007506f6c79676f6e00000000000000000000000000000000000000000000000000000000000000000000000000000000000000000000000000000000000000002a30783531633262326531303733343332656163353638313837626162383833656465316533316539656100000000000000000000000000000000000000000000000000000000000000000000000000000000000000000000000000000000000761786c5553444300000000000000000000000000000000000000000000000000",
          "blockHash": "0xf300af4e6c74f4fa1a18dba6e991f99925159c9a7ed5a8ba61a5e4a342ec01d2",
          "blockNumber": "0xc151d2f",
          "transactionHash": "0xcfe1ab74d5bc9fc22d038c1e34dd3d1926cd7a1e341886108b0317abdf4ca496",
          "transactionIndex": "0x2",
          "logIndex": "0x4",
          "removed": false
        }
      ],
      "status": "0x1",
      "logsBloom": "0x00000000000000000000000000040000000000000000000000000000000000000000000000000000000000000000800000000000080000000000000000200000000010000000000000000008000000000000000000004000000000000000004000000000020000000000000000000800000000080000000000000110000000000000000000000000000000000000000000000000000000000004000000000000020000008000000000000000000000000000000000000000000000000000000000000002000000000000080001000000000000000000000000000000000020000010000008000000000000000000001000400000000000000000000000000000",
      "type": "0x2",
      "effectiveGasPrice": "0x989680"
    }
  ],
  "libraries": [],
  "pending": [],
  "returns": {},
  "timestamp": 1713550056,
  "chain": 42161,
  "commit": "d937d2c"
}