{
  "transactions": [
    {
      "hash": "0xc8942d6f321b806d6328c941a43dae66bb1a58978a6bdd4b3934c8e53b0bc8e8",
      "transactionType": "CALL",
      "contractName": null,
      "contractAddress": "0x815B6202aEF5199e3DE73688A969D26D1506C55B",
      "function": "send(uint256)",
      "arguments": [
        "1000000"
      ],
      "transaction": {
        "type": "0x02",
        "from": "0x51c2b2e1073432eac568187bab883ede1e31e9ea",
        "to": "0x815b6202aef5199e3de73688a969d26d1506c55b",
        "gas": "0x1b57c",
        "value": "0x0",
        "data": "0xa52c101e00000000000000000000000000000000000000000000000000000000000f4240",
        "nonce": "0x3",
        "accessList": []
      },
      "additionalContracts": [],
      "isFixedGasLimit": false
    }
  ],
  "receipts": [
    {
      "transactionHash": "0xc8942d6f321b806d6328c941a43dae66bb1a58978a6bdd4b3934c8e53b0bc8e8",
      "transactionIndex": "0x5",
      "blockHash": "0x3bd6dd022641a33db20f69d747b0d7ca1223a10740ddbf96a8f72c6d93a919bd",
      "blockNumber": "0x5777fb",
      "from": "0x51c2B2E1073432Eac568187bAB883ede1E31E9EA",
      "to": "0x815B6202aEF5199e3DE73688A969D26D1506C55B",
      "cumulativeGasUsed": "0x49743",
      "gasUsed": "0x12b23",
      "contractAddress": null,
      "logs": [
        {
          "address": "0x254d06f33bDc5b8ee05b2ea472107E300226659A",
          "topics": [
            "0x8c5be1e5ebec7d5bd14f71427d1e84f3dd0314c0f7b2291e5b200ac8c7c3b925",
            "0x000000000000000000000000815b6202aef5199e3de73688a969d26d1506c55b",
            "0x000000000000000000000000e432150cce91c13a887f7d836923d5597add8e31"
          ],
          "data": "0x00000000000000000000000000000000000000000000000000000000000f4240",
          "blockHash": "0x3bd6dd022641a33db20f69d747b0d7ca1223a10740ddbf96a8f72c6d93a919bd",
          "blockNumber": "0x5777fb",
          "transactionHash": "0xc8942d6f321b806d6328c941a43dae66bb1a58978a6bdd4b3934c8e53b0bc8e8",
          "transactionIndex": "0x5",
          "logIndex": "0x4",
          "removed": false
        },
        {
          "address": "0x254d06f33bDc5b8ee05b2ea472107E300226659A",
          "topics": [
            "0x8c5be1e5ebec7d5bd14f71427d1e84f3dd0314c0f7b2291e5b200ac8c7c3b925",
            "0x000000000000000000000000815b6202aef5199e3de73688a969d26d1506c55b",
            "0x000000000000000000000000e432150cce91c13a887f7d836923d5597add8e31"
          ],
          "data": "0x0000000000000000000000000000000000000000000000000000000000000000",
          "blockHash": "0x3bd6dd022641a33db20f69d747b0d7ca1223a10740ddbf96a8f72c6d93a919bd",
          "blockNumber": "0x5777fb",
          "transactionHash": "0xc8942d6f321b806d6328c941a43dae66bb1a58978a6bdd4b3934c8e53b0bc8e8",
          "transactionIndex": "0x5",
          "logIndex": "0x5",
          "removed": false
        },
        {
          "address": "0x254d06f33bDc5b8ee05b2ea472107E300226659A",
          "topics": [
            "0xddf252ad1be2c89b69c2b068fc378daa952ba7f163c4a11628f55a4df523b3ef",
            "0x000000000000000000000000815b6202aef5199e3de73688a969d26d1506c55b",
            "0x0000000000000000000000000000000000000000000000000000000000000000"
          ],
          "data": "0x00000000000000000000000000000000000000000000000000000000000f4240",
          "blockHash": "0x3bd6dd022641a33db20f69d747b0d7ca1223a10740ddbf96a8f72c6d93a919bd",
          "blockNumber": "0x5777fb",
          "transactionHash": "0xc8942d6f321b806d6328c941a43dae66bb1a58978a6bdd4b3934c8e53b0bc8e8",
          "transactionIndex": "0x5",
          "logIndex": "0x6",
          "removed": false
        },
        {
          "address": "0xe432150cce91c13a887f7D836923d5597adD8E31",
          "topics": [
            "0x651d93f66c4329630e8d0f62488eff599e3be484da587335e8dc0fcf46062726",
            "0x000000000000000000000000815b6202aef5199e3de73688a969d26d1506c55b"
          ],
          "data": "0x000000000000000000000000000000000000000000000000000000000000008000000000000000000000000000000000000000000000000000000000000000c0000000000000000000000000000000000000000000000000000000000000012000000000000000000000000000000000000000000000000000000000000f42400000000000000000000000000000000000000000000000000000000000000010617262697472756d2d7365706f6c696100000000000000000000000000000000000000000000000000000000000000000000000000000000000000000000002a3078353163324232453130373334333245616335363831383762414238383365646531453331453945410000000000000000000000000000000000000000000000000000000000000000000000000000000000000000000000000000000000056155534443000000000000000000000000000000000000000000000000000000",
          "blockHash": "0x3bd6dd022641a33db20f69d747b0d7ca1223a10740ddbf96a8f72c6d93a919bd",
          "blockNumber": "0x5777fb",
          "transactionHash": "0xc8942d6f321b806d6328c941a43dae66bb1a58978a6bdd4b3934c8e53b0bc8e8",
          "transactionIndex": "0x5",
          "logIndex": "0x7",
          "removed": false
        }
      ],
      "status": "0x1",
      "logsBloom": "0x00000000000000000000000400000000000000000000000000000000000000000000000000004000000000000000800000000000080000000000000800200000000010000000000000000008000000000000000000000000000000000000004000000000020000000000000000010800000000000000000000000010000000000000000000000000000000000000000000000000000000000000000000000000060000008000000000000000000000000000000000000000000000000000002000000002000000000000080000000000000000000000000000000000000020000010000008000000000000000000001000400000000000000000000000000000",
      "type": "0x2",
      "effectiveGasPrice": "0xee4860a6"
    }
  ],
  "libraries": [],
  "pending": [],
  "returns": {},
  "timestamp": 1713538267,
  "chain": 11155111,
  "commit": "d937d2c"
}