{
  "transactions": [
    {
      "hash": "0xd3da8fdb1ae71beed468ddd21c0a43c06eb72bcc9627a55fcac00609dd0d821e",
      "transactionType": "CALL",
      "contractName": null,
      "contractAddress": "0xd2d59276bB0FE9b575baD691E3CE7147f5590fe7",
      "function": "send(uint256)",
      "arguments": [
        "2000000"
      ],
      "transaction": {
        "type": "0x02",
        "from": "0x51c2b2e1073432eac568187bab883ede1e31e9ea",
        "to": "0xd2d59276bb0fe9b575bad691e3ce7147f5590fe7",
        "gas": "0x1b1a9",
        "value": "0x0",
        "data": "0xa52c101e00000000000000000000000000000000000000000000000000000000001e8480",
        "nonce": "0x9",
        "accessList": []
      },
      "additionalContracts": [],
      "isFixedGasLimit": false
    }
  ],
  "receipts": [
    {
      "transactionHash": "0xd3da8fdb1ae71beed468ddd21c0a43c06eb72bcc9627a55fcac00609dd0d821e",
      "transactionIndex": "0x7",
      "blockHash": "0x852ec9ca38a14256d02c0d3bcf2f52edc1a2b77713aa586a3f8d2eae31ba2834",
      "blockNumber": "0x577bfc",
      "from": "0x51c2B2E1073432Eac568187bAB883ede1E31E9EA",
      "to": "0xd2d59276bB0FE9b575baD691E3CE7147f5590fe7",
      "cumulativeGasUsed": "0x3de81",
      "gasUsed": "0x139f7",
      "contractAddress": null,
      "logs": [
        {
          "address": "0x254d06f33bDc5b8ee05b2ea472107E300226659A",
          "topics": [
            "0x8c5be1e5ebec7d5bd14f71427d1e84f3dd0314c0f7b2291e5b200ac8c7c3b925",
            "0x000000000000000000000000d2d59276bb0fe9b575bad691e3ce7147f5590fe7",
            "0x000000000000000000000000e432150cce91c13a887f7d836923d5597add8e31"
          ],
          "data": "0x00000000000000000000000000000000000000000000000000000000001e8480",
          "blockHash": "0x852ec9ca38a14256d02c0d3bcf2f52edc1a2b77713aa586a3f8d2eae31ba2834",
          "blockNumber": "0x577bfc",
          "transactionHash": "0xd3da8fdb1ae71beed468ddd21c0a43c06eb72bcc9627a55fcac00609dd0d821e",
          "transactionIndex": "0x7",
          "logIndex": "0x2",
          "removed": false
        },
        {
          "address": "0x254d06f33bDc5b8ee05b2ea472107E300226659A",
          "topics": [
            "0x8c5be1e5ebec7d5bd14f71427d1e84f3dd0314c0f7b2291e5b200ac8c7c3b925",
            "0x000000000000000000000000d2d59276bb0fe9b575bad691e3ce7147f5590fe7",
            "0x000000000000000000000000e432150cce91c13a887f7d836923d5597add8e31"
          ],
          "data": "0x0000000000000000000000000000000000000000000000000000000000000000",
          "blockHash": "0x852ec9ca38a14256d02c0d3bcf2f52edc1a2b77713aa586a3f8d2eae31ba2834",
          "blockNumber": "0x577bfc",
          "transactionHash": "0xd3da8fdb1ae71beed468ddd21c0a43c06eb72bcc9627a55fcac00609dd0d821e",
          "transactionIndex": "0x7",
          "logIndex": "0x3",
          "removed": false
        },
        {
          "address": "0x254d06f33bDc5b8ee05b2ea472107E300226659A",
          "topics": [
            "0xddf252ad1be2c89b69c2b068fc378daa952ba7f163c4a11628f55a4df523b3ef",
            "0x000000000000000000000000d2d59276bb0fe9b575bad691e3ce7147f5590fe7",
            "0x0000000000000000000000000000000000000000000000000000000000000000"
          ],
          "data": "0x00000000000000000000000000000000000000000000000000000000001e8480",
          "blockHash": "0x852ec9ca38a14256d02c0d3bcf2f52edc1a2b77713aa586a3f8d2eae31ba2834",
          "blockNumber": "0x577bfc",
          "transactionHash": "0xd3da8fdb1ae71beed468ddd21c0a43c06eb72bcc9627a55fcac00609dd0d821e",
          "transactionIndex": "0x7",
          "logIndex": "0x4",
          "removed": false
        },
        {
          "address": "0xe432150cce91c13a887f7D836923d5597adD8E31",
          "topics": [
            "0x651d93f66c4329630e8d0f62488eff599e3be484da587335e8dc0fcf46062726",
            "0x000000000000000000000000d2d59276bb0fe9b575bad691e3ce7147f5590fe7"
          ],
          "data": "0x000000000000000000000000000000000000000000000000000000000000008000000000000000000000000000000000000000000000000000000000000000c0000000000000000000000000000000000000000000000000000000000000012000000000000000000000000000000000000000000000000000000000001e84800000000000000000000000000000000000000000000000000000000000000010617262697472756d2d7365706f6c696100000000000000000000000000000000000000000000000000000000000000000000000000000000000000000000002a3078353163326232653130373334333265616335363831383762616238383365646531653331653965610000000000000000000000000000000000000000000000000000000000000000000000000000000000000000000000000000000000056155534443000000000000000000000000000000000000000000000000000000",
          "blockHash": "0x852ec9ca38a14256d02c0d3bcf2f52edc1a2b77713aa586a3f8d2eae31ba2834",
          "blockNumber": "0x577bfc",
          "transactionHash": "0xd3da8fdb1ae71beed468ddd21c0a43c06eb72bcc9627a55fcac00609dd0d821e",
          "transactionIndex": "0x7",
          "logIndex": "0x5",
          "removed": false
        }
      ],
      "status": "0x1",
      "logsBloom": "0x00000000000000000000000000000000000000000000000000000000000000000000000000000000000000000000800000000000080000000000000800200800000010000000000000000008400000000000000000000000000000000000004000000000020000000000000000010800000000000000000000000010000000000000000000000000000000000000000000000000000000000000000000000000020000008000000000000000000000000000000000000000000000000000002001000002000000000000080000000000000000000000000000000000000020000010000008000000000000000000001000400000000000000000000000000000",
      "type": "0x2",
      "effectiveGasPrice": "0xb2f0ff08"
    }
  ],
  "libraries": [],
  "pending": [],
  "returns": {},
  "timestamp": 1713550947,
  "chain": 11155111,
  "commit": "d937d2c"
}