{
  "transactions": [
    {
      "hash": "0x5494aea9f5b608634aa0ec9842cfd11e10021f184e0c1d8c939198059f4adc2a",
      "transactionType": "CALL",
      "contractName": null,
      "contractAddress": "0x63150B9af349441ecCb34e580E97bB184f149A78",
      "function": "send(uint256)",
      "arguments": [
        "12500000"
      ],
      "transaction": {
        "type": "0x02",
        "from": "0x51c2b2e1073432eac568187bab883ede1e31e9ea",
        "to": "0x63150b9af349441eccb34e580e97bb184f149a78",
        "gas": "0x1d81a",
        "value": "0x0",
        "data": "0xa52c101e0000000000000000000000000000000000000000000000000000000000bebc20",
        "nonce": "0xb",
        "accessList": []
      },
      "additionalContracts": [],
      "isFixedGasLimit": false
    }
  ],
  "receipts": [
    {
      "transactionHash": "0x5494aea9f5b608634aa0ec9842cfd11e10021f184e0c1d8c939198059f4adc2a",
      "transactionIndex": "0x47",
      "blockHash": "0xbb181c2378a279650000cba392abd6c3a5b2496b7331d0bf3b3b7afc5d83b3be",
      "blockNumber": "0x356ba0d",
      "from": "0x51c2B2E1073432Eac568187bAB883ede1E31E9EA",
      "to": "0x63150B9af349441ecCb34e580E97bB184f149A78",
      "cumulativeGasUsed": "0x485056",
      "gasUsed": "0x155cc",
      "contractAddress": null,
      "logs": [
        {
          "address": "0x750e4C4984a9e0f12978eA6742Bc1c5D248f40ed",
          "topics": [
            "0x8c5be1e5ebec7d5bd14f71427d1e84f3dd0314c0f7b2291e5b200ac8c7c3b925",
            "0x00000000000000000000000063150b9af349441eccb34e580e97bb184f149a78",
            "0x0000000000000000000000006f015f16de9fc8791b234ef68d486d2bf203fba8"
          ],
          "data": "0x0000000000000000000000000000000000000000000000000000000000bebc20",
          "blockHash": "0xbb181c2378a279650000cba392abd6c3a5b2496b7331d0bf3b3b7afc5d83b3be",
          "blockNumber": "0x356ba0d",
          "transactionHash": "0x5494aea9f5b608634aa0ec9842cfd11e10021f184e0c1d8c939198059f4adc2a",
          "transactionIndex": "0x47",
          "logIndex": "0xcd",
          "removed": false
        },
        {
          "address": "0x750e4C4984a9e0f12978eA6742Bc1c5D248f40ed",
          "topics": [
            "0x8c5be1e5ebec7d5bd14f71427d1e84f3dd0314c0f7b2291e5b200ac8c7c3b925",
            "0x00000000000000000000000063150b9af349441eccb34e580e97bb184f149a78",
            "0x0000000000000000000000006f015f16de9fc8791b234ef68d486d2bf203fba8"
          ],
          "data": "0x0000000000000000000000000000000000000000000000000000000000000000",
          "blockHash": "0xbb181c2378a279650000cba392abd6c3a5b2496b7331d0bf3b3b7afc5d83b3be",
          "blockNumber": "0x356ba0d",
          "transactionHash": "0x5494aea9f5b608634aa0ec9842cfd11e10021f184e0c1d8c939198059f4adc2a",
          "transactionIndex": "0x47",
          "logIndex": "0xce",
          "removed": false
        },
        {
          "address": "0x750e4C4984a9e0f12978eA6742Bc1c5D248f40ed",
          "topics": [
            "0xddf252ad1be2c89b69c2b068fc378daa952ba7f163c4a11628f55a4df523b3ef",
            "0x00000000000000000000000063150b9af349441eccb34e580e97bb184f149a78",
            "0x0000000000000000000000000000000000000000000000000000000000000000"
          ],
          "data": "0x0000000000000000000000000000000000000000000000000000000000bebc20",
          "blockHash": "0xbb181c2378a279650000cba392abd6c3a5b2496b7331d0bf3b3b7afc5d83b3be",
          "blockNumber": "0x356ba0d",
          "transactionHash": "0x5494aea9f5b608634aa0ec9842cfd11e10021f184e0c1d8c939198059f4adc2a",
          "transactionIndex": "0x47",
          "logIndex": "0xcf",
          "removed": false
        },
        {
          "address": "0x6f015F16De9fC8791b234eF68D486d2bF203FBA8",
          "topics": [
            "0x651d93f66c4329630e8d0f62488eff599e3be484da587335e8dc0fcf46062726",
            "0x00000000000000000000000063150b9af349441eccb34e580e97bb184f149a78"
          ],
          "data": "0x000000000000000000000000000000000000000000000000000000000000008000000000000000000000000000000000000000000000000000000000000000c000000000000000000000000000000000000000000000000000000000000001200000000000000000000000000000000000000000000000000000000000bebc200000000000000000000000000000000000000000000000000000000000000008617262697472756d000000000000000000000000000000000000000000000000000000000000000000000000000000000000000000000000000000000000002a30783531633262326531303733343332656163353638313837626162383833656465316533316539656100000000000000000000000000000000000000000000000000000000000000000000000000000000000000000000000000000000000761786c5553444300000000000000000000000000000000000000000000000000",
          "blockHash": "0xbb181c2378a279650000cba392abd6c3a5b2496b7331d0bf3b3b7afc5d83b3be",
          "blockNumber": "0x356ba0d",
          "transactionHash": "0x5494aea9f5b608634aa0ec9842cfd11e10021f184e0c1d8c939198059f4adc2a",
          "transactionIndex": "0x47",
          "logIndex": "0xd0",
          "removed": false
        },
        {
          "address": "0x0000000000000000000000000000000000001010",
          "topics": [
            "0x4dfe1bbbcf077ddc3e01291eea2d5c70c2b422b415d95645b9adcfd678cb1d63",
            "0x0000000000000000000000000000000000000000000000000000000000001010",
            "0x00000000000000000000000051c2b2e1073432eac568187bab883ede1e31e9ea",
            "0x000000000000000000000000a8b52f02108aa5f4b675bdcc973760022d7c6020"
          ],
          "data": "0x0000000000000000000000000000000000000000000000000009d02d22e2f1c0000000000000000000000000000000000000000000000002c2a981b48fd470ca00000000000000000000000000000000000000000000004743d7807292696105000000000000000000000000000000000000000000000002c29fb1876cf17f0a00000000000000000000000000000000000000000000004743e1509fb54c52c5",
          "blockHash": "0xbb181c2378a279650000cba392abd6c3a5b2496b7331d0bf3b3b7afc5d83b3be",
          "blockNumber": "0x356ba0d",
          "transactionHash": "0x5494aea9f5b608634aa0ec9842cfd11e10021f184e0c1d8c939198059f4adc2a",
          "transactionIndex": "0x47",
          "logIndex": "0xd1",
          "removed": false
        }
      ],
      "status": "0x1",
      "logsBloom": "0x00000000000000000000000000000000000000000000000000000000000000000020000000000000000000000002000000008000080000000000000000200000000000000000000000000008020000800000000000000000000100000000000000000000020000000000000000200800000000000000001280000010000000000080000000000000000001200000000000000000000000040010000000004000220000800000004000000000000000000200000000000000000000000000004000000002000000000001880000000000000000000000000000100000100020000010000000000000000000000000000000400000000080000000000000100000",
      "type": "0x2",
      "effectiveGasPrice": "0x1357329ed7"
    }
  ],
  "libraries": [],
  "pending": [],
  "returns": {},
  "timestamp": 1713551590,
  "chain": 137,
  "commit": "d937d2c"
}